:020000040800F2
:1000000000280020AD1A0008C1160008C716000815
:10001000CD160008D3160008D9160008000000000D
:10002000000000000000000000000000DF160008D3
:10003000EB16000800000000F71600080317000880
:10004000F51A0008F51A0008F51A0008F51A000854
:10005000F51A0008F51A0008F51A0008F51A000844
:10006000F51A0008F51A0008F51A0008F51A000834
:10007000F51A0008F51A0008F51A0008F51A000824
:10008000F51A0008F51A0008F51A0008F51A000814
:10009000F51A0008F51A0008F51A0008F51A000804
:1000A000F51A0008F51A0008F51A0008F51A0008F4
:1000B00011170008F51A000800000000F51A0008E2
:1000C000F51A00080000000000000000F51A000802
:1000D00000000000F51A0008F51A000800000000F2
:1000E000F51A0008F51A0008F51A000800000000CB
:1000F0000000000000000000000000000000000000
:0C01000000000000000000005FF808F1A3
:10010C0010B5054C237833B9044B13B10448AFF345
:10011C0000800123237010BD60000020000000004F
:10012C004C31000808B5034B1BB103490348AFF32E
:10013C00008008BD00000000640000204C31000865
:10014C0080B400AF064B1B68012B04D1044B00227A
:10015C001A60012300E000231846BD4680BC70479E
:10016C007C00002080B400AF064B1B68012B04D12F
:10017C00044B00221A60012300E000231846BD4600
:10018C0080BC70478400002080B400AF064B1B6815
:10019C00012B04D1044B00221A60012300E0002340
:1001AC001846BD4680BC70478800002080B400AF64
:1001BC00034B01221A6000BFBD4680BC704700BFD4
:1001CC007C00002080B400AF034B01221A6000BFFA
:1001DC00BD4680BC704700BF8400002080B400AFD7
:1001EC00034B01221A6000BFBD4680BC704700BFA4
:1001FC008800002080B500AF224B1B68224A136098
:10020C00224B1B681F4A13604FF40071204801F009
:10021C0057FF03461A461D4B1A601B4B1A68194BA5
:10022C001B689A422BD1174B1A68184B1B689A42C1
:10023C0025D1184B1A68154B1B689A420DD0134BDD
:10024C001B68144A1360114B1B68002B17D1FFF766
:10025C00ADFF114B64221A6011E00F4B1B68013B80
:10026C000D4A13600C4B1B68002B08D1074B1B6805
:10027C00002B01D1FFF79AFF074B64221A6000BFD5
:10028C0080BD00BF040000200000002008000020FA
:10029C00000801400C0000208000002080B500AF59
:1002AC00224B1B68224A1360224B1B681F4A1360A7
:1002BC004FF48061204801F003FF03461A461D4BA2
:1002CC001A601B4B1A68194B1B689A422BD1174B9F
:1002DC001A68184B1B689A4225D1184B1A68154B93
:1002EC001B689A420DD0134B1B68144A1360114BB8
:1002FC001B68002B17D1FFF765FF114B64221A60A6
:10030C0011E00F4B1B68013B0D4A13600C4B1B6833
:10031C00002B08D1074B1B68002B01D1FFF752FFB4
:10032C00074B64221A6000BF80BD00BF1400002080
:10033C001000002018000020000801401C000020C4
:10034C002000002080B500AF224B1B68224A1360AE
:10035C00224B1B681F4A13604FF40061204801F0C8
:10036C00AFFE03461A461D4B1A601B4B1A68194BFD
:10037C001B689A422BD1174B1A68184B1B689A4270
:10038C0025D1184B1A68154B1B689A420DD0134B8C
:10039C001B68144A1360114B1B68002B17D1FFF715
:1003AC001DFF114B64221A6011E00F4B1B68013BBF
:1003BC000D4A13600C4B1B68002B08D1074B1B68B4
:1003CC00002B01D1FFF70AFF074B64221A6000BF14
:1003DC0080BD00BF28000020240000202C0000203D
:1003EC0000080140300000203400002080B582B0AD
:1003FC0000AF78607B68092B00F2128101A252F8E1
:10040C0023F000BF390400086B0400089D040008A9
:10041C00CF04000801050008330500086505000835
:10042C0097050008C9050008FB05000800224FF4D9
:10043C0080517E4801F05BFE00224FF400517B4856
:10044C0001F055FE00224FF48041784801F04FFE38
:10045C0000224FF40041754801F049FEE1E0012211
:10046C004FF48051714801F042FE00224FF40051CC
:10047C006E4801F03CFE00224FF480416B4801F0C5
:10048C0036FE00224FF40041684801F030FEC8E00F
:10049C0000224FF48051654801F029FE01224FF4EF
:1004AC000051624801F023FE00224FF480415F4866
:1004BC0001F01DFE00224FF400415C4801F017FED4
:1004CC00AFE001224FF48051584801F010FE012298
:1004DC004FF40051554801F00AFE00224FF48041C0
:1004EC00524801F004FE00224FF400414F4801F045
:1004FC00FEFD96E000224FF480514C4801F0F7FDD0
:10050C0000224FF40051494801F0F1FD01224FF453
:10051C008041464801F0EBFD00224FF40041434876
:10052C0001F0E5FD7DE001224FF480513F4801F0E0
:10053C00DEFD00224FF400513C4801F0D8FD0122B1
:10054C004FF48041394801F0D2FD00224FF40041B4
:10055C00364801F0CCFD64E000224FF48051334862
:10056C0001F0C5FD01224FF40051304801F0BFFDF0
:10057C0001224FF480412D4801F0B9FD00224FF4C7
:10058C0000412A4801F0B3FD4BE001224FF48051A9
:10059C00264801F0ACFD01224FF40051234801F034
:1005AC00A6FD01224FF48041204801F0A0FD00225D
:1005BC004FF400411D4801F09AFD32E000224FF447
:1005CC0080511A4801F093FD00224FF40051174856
:1005DC0001F08DFD00224FF48041144801F087FD9D
:1005EC0001224FF40041114801F081FD19E0012274
:1005FC004FF480510D4801F07AFD00224FF4005168
:10060C000A4801F074FD00224FF48041074801F0C4
:10061C006EFD01224FF40041044801F068FD00E03A
:10062C0000BF00BF0837BD4680BD00BF00080140B9
:10063C0080B582B000AF78607B68092B00F2EA804D
:10064C0001A252F823F000BF7D060008A70600089F
:10065C00D1060008FB060008250700084F07000814
:10066C0079070008A3070008CD070008F707000862
:10067C00002201216A4801F03AFD0022022168485B
:10068C0001F035FD00220421654801F030FD002207
:10069C000821634801F02BFDBDE0012201216048D7
:1006AC0001F025FD002202215D4801F020FD002211
:1006BC0004215B4801F01BFD00220821584801F081
:1006CC0016FDA8E000220121554801F010FD012281
:1006DC000221534801F00BFD00220421504801F087
:1006EC0006FD002208214E4801F001FD93E0012295
:1006FC0001214B4801F0FBFC01220221484801F08A
:10070C00F6FC00220421464801F0F1FC00220821ED
:10071C00434801F0ECFC7EE000220121404801F04E
:10072C00E6FC002202213E4801F0E1FC01220421FA
:10073C003B4801F0DCFC00220821394801F0D7FCD1
:10074C0069E001220121364801F0D1FC002202218E
:10075C00334801F0CCFC01220421314801F0C7FCE4
:10076C00002208212E4801F0C2FC54E00022012195
:10077C002B4801F0BCFC01220221294801F0B7FCF6
:10078C0001220421264801F0B2FC00220821244851
:10079C0001F0ADFC3FE001220121214801F0A7FC52
:1007AC00012202211E4801F0A2FC012204211C4856
:1007BC0001F09DFC00220821194801F098FC2AE068
:1007CC0000220121164801F092FC0022022114485B
:1007DC0001F08DFC00220421114801F088FC01225B
:1007EC0008210F4801F083FC15E0012201210C487F
:1007FC0001F07DFC00220221094801F078FC002266
:10080C000421074801F073FC01220821044801F07F
:10081C006EFC00E000BF00BF0837BD4680BD00BFC6
:10082C00000C014080B582B000AF78607B68092B6A
:10083C0000F2EA8001A252F823F000BF7108000810
:10084C009B080008C5080008EF08000819090008F3
:10085C00430900086D09000897090008C109000840
:10086C00EB090008002210216A4801F040FC00222C
:10087C002021684801F03BFC00224021654801F032
:10088C0036FC00228021634801F031FCBDE00122DE
:10089C001021604801F02BFC002220215D4801F062
:1008AC0026FC002240215B4801F021FC0022802123
:1008BC00584801F01CFCA8E000221021554801F01A
:1008CC0016FC01222021534801F011FC002240218A
:1008DC00504801F00CFC002280214E4801F007FC2E
:1008EC0093E0012210214B4801F001FC0122202150
:1008FC00484801F0FCFB00224021464801F0F7FB80
:10090C0000228021434801F0F2FB7EE000221021FE
:10091C00404801F0ECFB002220213E4801F0E7FBAF
:10092C00012240213B4801F0E2FB002280213948A2
:10093C0001F0DDFB69E001221021364801F0D7FB04
:10094C0000222021334801F0D2FB01224021314802
:10095C0001F0CDFB002280212E4801F0C8FB54E0B1
:10096C00002210212B4801F0C2FB01222021294832
:10097C0001F0BDFB01224021264801F0B8FB00220A
:10098C008021244801F0B3FB3FE0012210212148D3
:10099C0001F0ADFB012220211E4801F0A8FB012231
:1009AC0040211C4801F0A3FB00228021194801F0D2
:1009BC009EFB2AE000221021164801F098FB002231
:1009CC002021144801F093FB00224021114801F032
:1009DC008EFB012280210F4801F089FB15E00122DA
:1009EC0010210C4801F083FB00222021094801F062
:1009FC007EFB00224021074801F079FB0122802177
:100A0C00044801F074FB00E000BF00BF0837BD468E
:100A1C0080BD00BF000C014080B582B000AF786093
:100A2C007B68092B00F2128101A252F823F000BF5F
:100A3C00650A0008970A0008C90A0008FB0A0008A2
:100A4C002D0B00085F0B0008910B0008C30B00086E
:100A5C00F50B0008270C000800224FF480717E482B
:100A6C0001F045FB00224FF400717B4801F03FFB85
:100A7C0000224FF48061784801F039FB00224FF4DA
:100A8C000061754801F033FBE1E001224FF4807105
:100A9C00714801F02CFB00224FF400716E4801F0FC
:100AAC0026FB00224FF480616B4801F020FB0022F2
:100ABC004FF40061684801F01AFBC8E000224FF4C3
:100ACC008071654801F013FB01224FF400716248FC
:100ADC0001F00DFB00224FF480615F4801F007FB31
:100AEC0000224FF400615C4801F001FBAFE00122F1
:100AFC004FF48071584801F0FAFA01224FF400715A
:100B0C00554801F0F4FA00224FF48061524801F08C
:100B1C00EEFA00224FF400614F4801F0E8FA96E03B
:100B2C0000224FF480714C4801F0E1FA00224FF49E
:100B3C000071494801F0DBFA01224FF4806146480C
:100B4C0001F0D5FA00224FF40061434801F0CFFACE
:100B5C007DE001224FF480713F4801F0C8FA002279
:100B6C004FF400713C4801F0C2FA01224FF480614D
:100B7C00394801F0BCFA00224FF40061364801F00C
:100B8C00B6FA64E000224FF48071334801F0AFFAFA
:100B9C0001224FF40071304801F0A9FA01224FF400
:100BAC0080612D4801F0A3FA00224FF400612A481D
:100BBC0001F09DFA4BE001224FF48071264801F0C0
:100BCC0096FA01224FF40071234801F090FA0122A9
:100BDC004FF48061204801F08AFA00224FF4006142
:100BEC001D4801F084FA32E000224FF480711A485B
:100BFC0001F07DFA00224FF40071174801F077FAEA
:100C0C0000224FF48061144801F071FA01224FF474
:100C1C000061114801F06BFA19E001224FF4807168
:100C2C000D4801F064FA00224FF400710A4801F0FB
:100C3C005EFA00224FF48061074801F058FA012255
:100C4C004FF40061044801F052FA00E000BF00BF0D
:100C5C000837BD4680BD00BF000C014080B582B096
:100C6C0000AF78607B68013B032B6FD801A252F870
:100C7C0023F000BF910C0008C30C0008F50C000811
:100C8C00270D000801224FF48051334801F02FFA50
:100C9C0000224FF40051304801F029FA00224FF4A1
:100CAC0080412D4801F023FA00224FF400412A48DC
:100CBC0001F01DFA4BE000224FF48051264801F060
:100CCC0016FA01224FF40051234801F010FA0022C9
:100CDC004FF48041204801F00AFA00224FF4004101
:100CEC001D4801F004FA32E001224FF480511A48F9
:100CFC0001F0FDF901224FF40051174801F0F7F90A
:100D0C0000224FF48041144801F0F1F900224FF415
:100D1C000041114801F0EBF919E000224FF4805129
:100D2C000D4801F0E4F900224FF400510A4801F09B
:100D3C00DEF901224FF48041074801F0D8F9002276
:100D4C004FF40041044801F0D2F900E000BF00BFAD
:100D5C000837BD4680BD00BF000C014080B500AF18
:100D6C00744B1B68013B032B00F2438201A252F827
:100D7C0023F000BF910D0008F10D0008650F00086D
:100D8C00B31000086C4B1B68012B0CD100F0DAFC83
:100D9C0000F0AEFD694B1B681846FFF75FFF64203F
:100DAC0000F064FB2EE2FFF7CBF90346012B40F079
:100DBC002282624B1B680133604A13605F4B1B68D5
:100DCC001846FFF74BFF5D4B1B68042B02DD5B4B9A
:100DDC0001221A60594B1B68564A1360322000F0EE
:100DEC0045FB08E2544B1B68012B24D1534B1B6869
:100DFC001846FFF733FF0821514801F090F94021C4
:100E0C004F4801F08CF9012220214D4801F06FF977
:100E1C0001224FF480714A4801F069F90122102136
:100E2C00474801F064F901228021454801F05FF93F
:100E3C00322000F01BFBFFF795F90346012B46D13E
:100E4C00404B1B6801333F4A13603E4B1B68053314
:100E5C003D4A13603C4B1B68632B02DD3A4B01226D
:100E6C001A60394B1B68394A82FB03129210DB174C
:100E7C00D31A1846FFF7BAFA334B1A68334B83FB75
:100E8C0002139910D317C91A0B469B000B445B0035
:100E9C00D11A0846FFF7CCFB2B4B1B682B4A82FB65
:100EAC0003129210DB17D31A1846FFF7BBFC264B24
:100EBC001A68264B83FB02139910D317C91A0B46D9
:100ECC009B000B445B00D11A0846FFF7A5FDFFF70A
:100EDC005BF90346002B0DD01A4B00221A601A4BFB
:100EEC001B681B4A1360184B1B681A4A1360114B82
:100EFC0001221A60FFF724F90346012B40F07D8193
:100F0C000E4B1B6801330D4A13600C4B1B681846C3
:100F1C00FFF7A4FE094B1B68042B02DD074B0122D3
:100F2C001A60064B1B68034A1360322000F09EFACD
:100F3C0063E100BF48000020900000204400002026
:100F4C00000801408C0000203800002067666666AF
:100F5C005000002054000020AB4B1B68012B24D107
:100F6C00AA4B1B681846FFF779FE2021A84801F010
:100F7C00D6F84FF48071A64801F0D1F8012208216F
:100F8C00A34801F0B4F801224021A14801F0AFF8C8
:100F9C00012210219E4801F0AAF8012280219C48D0
:100FAC0001F0A5F8322000F061FAFFF7DBF80346F8
:100FBC00012B46D1974B1B680133964A1360954B16
:100FCC001B680233944A1360934B1B68632B02DD3E
:100FDC00914B01221A60904B1B68904A82FB0312C2
:100FEC009210DB17D31A1846FFF700FA8A4B1A68CF
:100FFC008A4B83FB02139910D317C91A0B469B001B
:10100C000B445B00D11A0846FFF712FB824B1B689E
:10101C00824A82FB03129210DB17D31A1846FFF791
:10102C0001FC7D4B1A687D4B83FB02139910D3177F
:10103C00C91A0B469B000B445B00D11A0846FFF7FC
:10104C00EBFCFFF7A1F80346002B0DD0714B0022EF
:10105C001A60714B1B68724A13606F4B1B68714AA4
:10106C001360714B01221A60FFF76AF80346012BDB
:10107C0040F0C580654B1B680133644A1360634BB9
:10108C001B681846FFF7EAFD604B1B68042B02DD5A
:10109C005E4B01221A605D4B1B68634A1360322061
:1010AC0000F0E4F9ABE0584B1B68012B24D1574BF3
:1010BC001B681846FFF7D2FD1021554801F02FF898
:1010CC008021534801F02BF801220821504801F0EF
:1010DC000EF8012240214E4801F009F8012220218E
:1010EC004B4801F004F801224FF48071484800F09D
:1010FC00FEFF322000F0BAF9FFF734F80346012B5B
:10110C0046D1444B1B680133424A1360414B1B6868
:10111C000333464A1360454B1B68632B02DD434B7C
:10112C0001221A60414B1B683C4A82FB031292104D
:10113C00DB17D31A1846FFF759F93C4B1A68374B93
:10114C0083FB02139910D317C91A0B469B000B444F
:10115C005B00D11A0846FFF76BFA344B1B682F4A19
:10116C0082FB03129210DB17D31A1846FFF75AFBB7
:10117C002E4B1A68294B83FB02139910D317C91AEB
:10118C000B469B000B445B00D11A0846FFF744FC4E
:10119C00FEF7FAFF0346002B0DD01E4B00221A60FF
:1011AC00224B1B681E4A1360204B1B681D4A1360A0
:1011BC001D4B01221A60FEF7C3FF0346012B20D101
:1011CC00124B1B680133114A1360104B1B681846F5
:1011DC00FFF744FD0D4B1B68042B02DD0B4B01226A
:1011EC001A600A4B1B68104A1360322000F03EF95B
:1011FC0007E000BF06E000BF04E000BF02E000BF54
:10120C0000E000BF00BF80BD900000204400002023
:10121C00000801408C0000204000002067666666D4
:10122C005000002054000020480000203C0000200A
:10123C0080B500AF00F05AFC00F012F800F04CF84A
:10124C0000F096F8054801F0BBFB00F06BFA0A20A1
:10125C0000F00CF9FFF782FDFCE700BFE000002076
:10126C0080B590B000AF07F1180328220021184672
:10127C0001F05EFF3B1D00221A605A609A60DA6032
:10128C001A610223BB610123BB621023FB620023A2
:10129C007B6307F11803184600F05AFF0346002B36
:1012AC0001D000F0DEF80F237B600023BB6000232D
:1012BC00FB6000233B6100237B613B1D0021184632
:1012CC0001F0C6F90346002B01D000F0CAF800BFAC
:1012DC004037BD4680BD000080B586B000AF07F139
:1012EC00080300221A605A609A60DA603B460022BA
:1012FC001A605A601D4B4FF080421A601B4B41F62E
:10130C003F725A60194B00229A60184B0922DA601E
:10131C00164B00221A61154B00229A61134801F0FA
:10132C00FFFA0346002B01D000F09BF84FF48053DA
:10133C00BB6007F1080319460C4801F095FC034605
:10134C00002B01D000F08DF800233B6000237B6064
:10135C003B461946054801F05DFE0346002B01D0C3
:10136C0000F07FF800BF1837BD4680BDE0000020BC
:10137C0080B586B000AF07F1080300221A605A60EE
:10138C009A60DA60294B9B69284A43F00403936105
:10139C00264B9B6903F004037B607B68234B9B69A2
:1013AC00224A43F008039361204B9B6903F0080326
:1013BC003B603B6800224FF2F8111D4800F097FE8D
:1013CC0000224FF6FF711B4800F091FE4FF2F8130C
:1013DC00BB600123FB6000233B6102237B6107F1AF
:1013EC0008031946124800F0F1FC4FF6FF73BB607E
:1013FC000123FB6000233B6102237B6107F108039F
:10140C0019460C4800F0E2FC4FF46063BB6000230B
:10141C00FB6001233B6107F108031946044800F007
:10142C00D5FC00BF1837BD4680BD00BF0010024080
:10143C0000080140000C014080B582B000AF78601C
:10144C007B681B68B3F1804F07D1FEF7D3FEFEF724
:10145C0025FFFEF777FF00F01DF800BF0837BD46EB
:10146C0080BD80B400AF72B600BFFEE780B483B01D
:10147C0000AF7860054A7B681360054B00221A6048
:10148C0000BF0C37BD4680BC704700BFB4000020C5
:10149C009000002080B400AF494B1B68002B0BDD83
:1014AC00474B1B68013B464A1360454B1B68002B9E
:1014BC0002D1444B01221A60434B1B68002B0BDDFD
:1014CC00414B1B68013B404A13603F4B1B68002B90
:1014DC0002D13E4B01221A603D4B1B68002B0BDDE9
:1014EC003B4B1B68013B3A4A1360394B1B68002B82
:1014FC0002D1384B01221A60374B1B68002B0BDDD5
:10150C00354B1B68013B344A1360334B1B68002B73
:10151C0002D1324B01221A60314B1B68002B0BDDC0
:10152C002F4B1B68013B2E4A13602D4B1B68002B65
:10153C0002D12C4B01221A602B4B1B68002B0BDDAC
:10154C00294B1B68013B284A1360274B1B68002B57
:10155C0002D1264B01221A60254B1B68002B0BDD98
:10156C00234B1B68013B224A1360214B1B68002B49
:10157C0002D1204B01221A601F4B1B68002B0BDD84
:10158C001D4B1B68013B1C4A13601B4B1B68002B3B
:10159C0002D11A4B01221A60194B1B68002B0BDD70
:1015AC00174B1B68013B164A1360154B1B68002B2D
:1015BC0002D1144B01221A6000BFBD4680BC70479B
:1015CC00B400002090000020B800002094000020FF
:1015DC00BC00002098000020C00000209C000020CF
:1015EC00C4000020A0000020C8000020A40000209F
:1015FC00CC000020A8000020D0000020AC0000206F
:10160C00D4000020B000002080B485B000AF154B92
:10161C009B69144A43F001039361124B9B6903F0DD
:10162C000103BB60BB680F4BDB690E4A43F0805370
:10163C00D3610C4BDB6903F080537B607B680A4BF6
:10164C005B68FB60FB6823F0E063FB60FB6843F0C6
:10165C008063FB60044AFB68536000BF1437BD46CF
:10166C0080BC7047001002400000014080B584B07F
:10167C0000AF78607B681B68B3F1804F13D10C4BC3
:10168C00DB690B4A43F00103D361094BDB6903F0BF
:10169C000103FB60FB68002200211C2000F05FFBB3
:1016AC001C2000F078FB00BF1037BD4680BD00BF8A
:1016BC000010024080B400AFFEE780B400AFFEE73C
:1016CC0080B400AFFEE780B400AFFEE780B400AF9B
:1016DC00FEE780B400AF00BFBD4680BC704780B44D
:1016EC0000AF00BFBD4680BC704780B400AF00BFE8
:1016FC00BD4680BC704780B500AF00F03DFA00BF1E
:10170C0080BD000080B500AF024801F0A5F900BF14
:10171C0080BD00BFE000002080B400AF00BFBD461C
:10172C0080BC704780B400AF044B00221A60044B9D
:10173C0001221A6000BFBD4680BC7047D800002053
:10174C00DC00002080B500AF624B1B68022B42D03E
:10175C00022B00F3B680002B02D0012B76D0B0E028
:10176C00002208215C4800F0C2FC012220215A48CA
:10177C0000F0BDFC01221021574800F0B8FC574B7B
:10178C001B68013B554A1360544B1B68544A82FB3F
:10179C0003129210DB17D31A1846FEF727FE4F4B95
:1017AC001A684F4B83FB02139910D317C91A0B46B7
:1017BC009B000B445B00D11A0846FEF739FF474BE0
:1017CC001B68002B7FD1434B01221A60454B1B68D1
:1017DC00424A136077E0012208213F4800F087FC61
:1017EC00002220213C4800F082FC012210213A48C2
:1017FC0000F07DFC394B1B68013B384A1360374BBA
:10180C001B68374A82FB03129210DB17D31A184657
:10181C00FEF7ECFD314B1A68314B83FB0213991028
:10182C00D317C91A0B469B000B445B00D11A084610
:10183C00FEF7FEFE294B1B68002B46D1254B0022E0
:10184C001A60294B1B68254A13603EE001220821CF
:10185C00214800F04CFC012220211F4800F047FCDD
:10186C00002210211C4800F042FC1C4B1B68013B61
:10187C001A4A1360194B1B68194A82FB0312921007
:10188C00DB17D31A1846FEF7B1FD144B1A68144B2C
:10189C0083FB02139910D317C91A0B469B000B44F8
:1018AC005B00D11A0846FEF7C3FE0C4B1B68002BDD
:1018BC000DD1084B02221A600C4B1B68074A1360AF
:1018CC0005E000BF04E000BF02E000BF00E000BF85
:1018DC0000BF80BDD800002000080140500000204F
:1018EC00676666663C00002038000020400000203F
:1018FC0080B500AF634B1B68022B43D0022B00F367
:10190C00BE80002B02D0012B78D0B8E00022402101
:10191C005D4800F0ECFB01224FF480715A4800F056
:10192C00E6FB01228021584800F0E1FB574B1B6875
:10193C00013B564A1360554B1B68554A82FB0312F8
:10194C009210DB17D31A1846FEF76CFF4F4B1A6830
:10195C004F4B83FB02139910D317C91A0B469B00EC
:10196C000B445B00D11A0846FFF756F8474B1B682F
:10197C00002B7FD1434B01221A60464B1B68434A14
:10198C00136077E0012240213F4800F0B0FB0022B9
:10199C004FF480713C4800F0AAFB012280213A48A8
:1019AC0000F0A5FB394B1B68013B384A1360374BE1
:1019BC001B68374A82FB03129210DB17D31A1846A6
:1019CC00FEF730FF314B1A68314B83FB0213991031
:1019DC00D317C91A0B469B000B445B00D11A08465F
:1019EC00FFF71AF8294B1B68002B45D1254B002219
:1019FC001A60294B1B68254A13603DE001224021E7
:101A0C00214800F074FB01224FF480711E4800F055
:101A1C006EFB002280211C4800F069FB1B4B1B68ED
:101A2C00013B1A4A1360194B1B68194A82FB0312BB
:101A3C009210DB17D31A1846FEF7F4FE134B1A68F4
:101A4C00134B83FB02139910D317C91A0B469B0037
:101A5C000B445B00D11A0846FEF7DEFF0B4B1B68EC
:101A6C00002B0BD1074B02221A600C4B1B68074A48
:101A7C00136003E000BF02E000BF00E000BF00BF46
:101A8C0080BD00BFDC000020000801405400002095
:101A9C00676666663C00002038000020400000208D
:101AAC000C480D490D4A002302E0D458C4500433AD
:101ABC00C4188C42F9D30A4A0A4C002301E0136083
:101ACC000432A242FBD3FFF727FE01F00DFBFFF718
:101ADC00AFFB704700000020600000208C31000834
:101AEC00600000202C010020FEE7000080B500AF54
:101AFC00084B1B68074A43F010031360032000F0E7
:101B0C0023F90F2000F008F8FFF77EFD002318469C
:101B1C0080BD00BF0020024080B582B000AF78606D
:101B2C00124B1A68124B1B7819464FF47A73B3FB9D
:101B3C00F1F3B2FBF3F3184600F03BF90346002B2C
:101B4C0001D001230EE07B680F2B0AD800227968A4
:101B5C004FF0FF3000F003F9064A7B681360002356
:101B6C0000E0012318460837BD4680BD4C0000201C
:101B7C005C0000205800002080B400AF054B1B789F
:101B8C001A46054B1B681344034A136000BFBD463D
:101B9C0080BC70475C0000202801002080B400AF9E
:101BAC00024B1B681846BD4680BC704728010020BC
:101BBC0080B485B000AF78607B6803F00703FB60EE
:101BCC000C4BDB68BB60BA684FF6FF031340BB607D
:101BDC00FB681A02BB68134343F0BF6343F4003342
:101BEC00BB60044ABB68D36000BF1437BD4680BCE1
:101BFC00704700BF00ED00E080B400AF044BDB6821
:101C0C001B0A03F007031846BD4680BC704700BF93
:101C1C0000ED00E080B483B000AF0346FB7197F990
:101C2C000730002B0BDBFB7903F01F02064997F9F9
:101C3C0007305B09012000FA02F241F8232000BFB3
:101C4C000C37BD4680BC704700E100E080B483B027
:101C5C0000AF03463960FB7197F90730002B0ADBA4
:101C6C003B68DAB20C4997F907301201D2B20B4437
:101C7C0083F800230AE03B68DAB20849FB7903F0E9
:101C8C000F03043B1201D2B20B441A7600BF0C377F
:101C9C00BD4680BC704700BF00E100E000ED00E0F5
:101CAC0080B489B000AFF860B9607A60FB6803F06B
:101CBC000703FB61FB69C3F10703042B28BF042353
:101CCC00BB61FB690433062B02D9FB69033B00E0C3
:101CDC0000237B614FF0FF32BB6902FA03F3DA4356
:101CEC00BB681A407B699A404FF0FF317B6901FA5F
:101CFC0003F3D9437B680B40134318462437BD4686
:101D0C0080BC704780B582B000AF78607B68013BC7
:101D1C00B3F1807F01D301230FE00A4A7B68013BBA
:101D2C0053600F214FF0FF30FFF790FF054B00225F
:101D3C009A60044B07221A60002318460837BD46E8
:101D4C0080BD00BF10E000E080B582B000AF7860CD
:101D5C007868FFF72DFF00BF0837BD4680BD80B502
:101D6C0086B000AF0346B9607A60FB7300237B61D9
:101D7C00FFF742FF78617A68B9687869FFF790FFDE
:101D8C00024697F90F3011461846FFF75FFF00BF68
:101D9C001837BD4680BD80B582B000AF0346FB71DD
:101DAC0097F907301846FFF735FF00BF0837BD46D7
:101DBC0080BD80B582B000AF78607868FFF7A2FF75
:101DCC00034618460837BD4680BD000080B48BB072
:101DDC0000AF7860396000237B6200233B6248E1EE
:101DEC0001227B6A02FA03F3FB613B681B68FA6908
:101DFC001340BB61BA69FB699A4240F037813B687A
:101E0C005B68A34A93425ED0A14A934275D8A14A1B
:101E1C00934258D09F4A93426FD89F4A934252D0D4
:101E2C009D4A934269D89D4A93424CD09B4A934217
:101E3C0063D89B4A934246D0994A93425DD8122B61
:101E4C002AD8122B59D801A252F823F0D31E00081D
:101E5C00AD1E0008BF1E0008011F0008071F000868
:101E6C00071F0008071F0008071F0008071F0008AE
:101E7C00071F0008071F0008071F0008071F00089E
:101E8C00071F0008071F0008071F0008071F00088E
:101E9C00B51E0008C91E0008824A934213D02CE0DC
:101EAC003B68DB683B6229E03B68DB6804333B62E0
:101EBC0024E03B68DB6808333B621FE03B68DB686F
:101ECC000C333B621AE03B689B68002B02D1042365
:101EDC003B6213E03B689B68012B05D108233B62F6
:101EEC007B68FA691A6109E008233B627B68FA692E
:101EFC005A6103E000233B6200E000BFBB69FF2B8B
:101F0C0001D87B6801E07B6804337B61BB69FF2BE4
:101F1C0002D87B6A9B0002E07B6A083B9B003B611A
:101F2C007B691A680F213B6901FA03F3DB431A4002
:101F3C00396A3B6901FA03F31A437B691A603B68FF
:101F4C005B6803F08053002B00F09080564B9B692C
:101F5C00554A43F001039361534B9B6903F0010312
:101F6C00BB60BB68514A7B6A9B08023352F8233032
:101F7C00FB607B6A03F003039B000F2202FA03F35E
:101F8C00DB43FA681340FB607B68494A93420DD0EF
:101F9C007B68484A934207D07B68474A934201D1F9
:101FAC00022304E0032302E0012300E000237A6A09
:101FBC0002F0030292009340FA681343FB603B4922
:101FCC007B6A9B080233FA6841F823203B685B6804
:101FDC0003F48033002B06D0384B1A683749BB69A1
:101FEC0013430B6006E0354B1A68BB69DB4333497E
:101FFC0013400B603B685B6803F40033002B06D086
:10200C002E4B5A682D49BB6913434B6006E02B4B92
:10201C005A68BB69DB43294913404B603B685B68DA
:10202C0003F48013002B06D0244B9A682349BB6918
:10203C0013438B6006E0214B9A68BB69DB431F4955
:10204C0013408B603B685B6803F40013002B06D0D5
:10205C001A4BDA681949BB691343CB6006E0174B7E
:10206C00DA68BB69DB4315491340CB607B6A0133EB
:10207C007B623B681A687B6A22FA03F3002B7FF4BD
:10208C00AFAE00BF00BF2C37BD4680BC704700BF51
:10209C00000032100000311000002210000021104E
:1020AC00000012100000111000100240000001404E
:1020BC0000080140000C01400010014000040140E8
:1020CC0080B485B000AF78600B467B807B689A68E3
:1020DC007B881340002B02D00123FB7301E000230B
:1020EC00FB73FB7B18461437BD4680BC704780B42D
:1020FC0083B000AF78600B467B8013467B707B7897
:10210C00002B03D07A887B681A6103E07B881A0461
:10211C007B681A6100BF0C37BD4680BC704780B429
:10212C0085B000AF78600B467B807B68DB68FB601A
:10213C007A88FB6813401A04FB68D9437B880B40F0
:10214C001A437B681A6100BF1437BD4680BC7047C8
:10215C0080B586B000AF78607B68002B01D101237D
:10216C006CE27B681B6803F00103002B00F0878096
:10217C00924B5B6803F00C03042B0CD08F4B5B6809
:10218C0003F00C03082B12D18C4B5B6803F48033E7
:10219C00B3F5803F0BD1894B1B6803F40033002B44
:1021AC006CD07B685B68002B68D1012346E27B68AE
:1021BC005B68B3F5803F06D1804B1B687F4A43F4C4
:1021CC00803313602EE07B685B68002B0CD17B4B5B
:1021DC001B687A4A23F480331360784B1B68774A68
:1021EC0023F4802313601DE07B685B68B3F5A02F9C
:1021FC000CD1724B1B68714A43F4802313606F4BF4
:10220C001B686E4A43F4803313600BE06B4B1B6806
:10221C006A4A23F480331360684B1B68674A23F4C3
:10222C00802313607B685B68002B13D0FFF7B6FC30
:10223C00386108E0FFF7B2FC02463B69D31A642B05
:10224C0001D90323FAE15D4B1B6803F40033002B27
:10225C00F0D014E0FFF7A2FC386108E0FFF79EFC19
:10226C0002463B69D31A642B01D90323E6E1534B95
:10227C001B6803F40033002BF0D100E000BF7B6837
:10228C001B6803F00203002B63D04C4B5B6803F01C
:10229C000C03002B0BD0494B5B6803F00C03082B91
:1022AC001CD1464B5B6803F48033002B16D1434B97
:1022BC001B6803F00203002B05D07B681B69012B04
:1022CC0001D00123BAE13D4B1B6823F0F8027B6877
:1022DC005B69DB00394913430B603AE07B681B698F
:1022EC00002B20D0364B01221A60FFF757FC3861C7
:1022FC0008E0FFF753FC02463B69D31A022B01D9C5
:10230C0003239BE12D4B1B6803F00203002BF0D041
:10231C002A4B1B6823F0F8027B685B69DB002749BA
:10232C0013430B6015E0264B00221A60FFF736FCB6
:10233C00386108E0FFF732FC02463B69D31A022BE6
:10234C0001D903237AE11D4B1B6803F00203002B18
:10235C00F0D17B681B6803F00803002B3AD07B6834
:10236C009B69002B19D0174B01221A60FFF716FC42
:10237C00386108E0FFF712FC02463B69D31A022BC6
:10238C0001D903235AE10D4B5B6A03F00203002BC6
:10239C00F0D0012000F0A6FA1CE00A4B00221A60D3
:1023AC00FFF7FCFB38610FE0FFF7F8FB02463B69D7
:1023BC00D31A022B08D9032340E100BF00100240BE
:1023CC0000004242800442429E4B5B6A03F00203CF
:1023DC00002BE9D17B681B6803F00403002B00F091
:1023EC00A6800023FB75974BDB6903F08053002B11
:1023FC000DD1944BDB69934A43F08053D361914BDD
:10240C00DB6903F08053BB60BB680123FB758E4B0B
:10241C001B6803F48073002B18D18B4B1B688A4A02
:10242C0043F480731360FFF7B9FB386108E0FFF7E2
:10243C00B5FB02463B69D31A642B01D90323FDE09B
:10244C00814B1B6803F48073002BF0D07B68DB6836
:10245C00012B06D17B4B1B6A7A4A43F001031362B2
:10246C002DE07B68DB68002B0CD1764B1B6A754A20
:10247C0023F001031362734B1B6A724A23F00403AB
:10248C0013621CE07B68DB68052B0CD16D4B1B6A5F
:10249C006C4A43F0040313626A4B1B6A694A43F0AB
:1024AC00010313620BE0674B1B6A664A23F00103BE
:1024BC001362644B1B6A634A23F0040313627B6848
:1024CC00DB68002B15D0FFF769FB38610AE0FFF7DA
:1024DC0065FB02463B69D31A41F28832934201D91B
:1024EC000323ABE0574B1B6A03F00203002BEED027
:1024FC0014E0FFF753FB38610AE0FFF74FFB02468D
:10250C003B69D31A41F28832934201D9032395E0F7
:10251C004C4B1B6A03F00203002BEED1FB7D012B0D
:10252C0005D1484BDB69474A23F08053D3617B6864
:10253C00DB69002B00F08180424B5B6803F00C03DD
:10254C00082B61D07B68DB69022B46D13F4B002204
:10255C001A60FFF723FB386108E0FFF71FFB024608
:10256C003B69D31A022B01D9032367E0354B1B6857
:10257C0003F00073002BF0D17B681B6AB3F5803F2E
:10258C0008D1304B5B6823F400327B689B682D4983
:10259C0013434B602B4B5B6823F474127B68196AF2
:1025AC007B685B6A0B43274913434B60274B012223
:1025BC001A60FFF7F3FA386108E0FFF7EFFA02460A
:1025CC003B69D31A022B01D9032337E01D4B1B683F
:1025DC0003F00073002BF0D02FE01C4B00221A608C
:1025EC00FFF7DCFA386108E0FFF7D8FA02463B69DE
:1025FC00D31A022B01D9032320E0124B1B6803F0E2
:10260C000073002BF0D118E07B68DB69012B01D142
:10261C00012313E00B4B5B68FB60FB6803F4803217
:10262C007B681B6A9A4206D1FB6803F470127B68C4
:10263C005B6A9A4201D0012300E000231846183748
:10264C00BD4680BD00100240007000406000424258
:10265C0080B584B000AF786039607B68002B01D105
:10266C000123D0E06A4B1B6803F007033A689A42D7
:10267C0010D9674B1B6823F0070265493B6813436D
:10268C000B60634B1B6803F007033A689A4201D056
:10269C000123B8E07B681B6803F00203002B20D0F9
:1026AC007B681B6803F00403002B05D0594B5B6857
:1026BC00584A43F4E06353607B681B6803F00803DB
:1026CC00002B05D0534B5B68524A43F46053536064
:1026DC00504B5B6823F0F0027B689B684D491343B9
:1026EC004B607B681B6803F00103002B40D07B68B8
:1026FC005B68012B07D1474B1B6803F40033002B9D
:10270C0015D101237FE07B685B68022B07D1414B1D
:10271C001B6803F00073002B09D1012373E03D4BC0
:10272C001B6803F00203002B01D101236BE0394B32
:10273C005B6823F003027B685B68364913434B608C
:10274C00FFF72CFAF8600AE0FFF728FA0246FB685C
:10275C00D31A41F28832934201D9032353E02D4B13
:10276C005B6803F00C027B685B689B009A42EBD1C0
:10277C00274B1B6803F007033A689A4210D2244B8C
:10278C001B6823F0070222493B6813430B60204B64
:10279C001B6803F007033A689A4201D0012332E028
:1027AC007B681B6803F00403002B08D0194B5B6893
:1027BC0023F4E0627B68DB68164913434B607B684B
:1027CC001B6803F00803002B09D0124B5B6823F441
:1027DC0060527B681B69DB000E4913434B6000F0B1
:1027EC0021F802460B4B5B681B0903F00F030A49E7
:1027FC00CB5C22FA03F3094A1360094B1B68184699
:10280C00FFF78AF9002318461037BD4680BD00BF7C
:10281C000020024000100240743100084C000020DF
:10282C005800002090B48AB000AF2A4B3C1D0FCB4F
:10283C0084E80F0040F201233B800023FB6100235E
:10284C00BB6100237B6200237B6100233B62224B34
:10285C005B68FB61FB6903F00C03042B02D0082BB3
:10286C0003D02DE01D4B3B622DE0FB699B0C03F06C
:10287C000F0307F12802134413F8243C7B61FB6916
:10288C0003F48033002B13D0134B5B685B0C03F009
:10289C00010307F12802134413F8283CBB617B6940
:1028AC000E4A02FB03F2BB69B2FBF3F37B6204E05A
:1028BC007B690B4A02FB03F37B627B6A3B6202E09F
:1028CC00064B3B6200BF3B6A18462837BD4690BC9E
:1028DC00704700BF643100080010024000127A00FB
:1028EC0000093D0080B485B000AF78600A4B1B68CE
:1028FC000A4AA2FB03235B0A7A6802FB03F3FB6020
:10290C0000BFFB685A1EFA60002BF9D100BF00BF54
:10291C001437BD4680BC70474C000020D34D62106C
:10292C0080B582B000AF78607B68002B01D10123A9
:10293C0041E07B6893F83D30DBB2002B06D17B681D
:10294C00002283F83C207868FEF790FE7B68022218
:10295C0083F83D207B681A687B680433194610465F
:10296C0000F06AFA7B68012283F846207B6801221A
:10297C0083F83E207B68012283F83F207B6801228C
:10298C0083F840207B68012283F841207B68012278
:10299C0083F842207B68012283F843207B68012264
:1029AC0083F844207B68012283F845207B68012250
:1029BC0083F83D20002318460837BD4680BD000033
:1029CC0080B485B000AF78607B6893F83D30DBB2A3
:1029DC00012B01D0012335E07B68022283F83D20D6
:1029EC007B681B68DA687B681B6842F00102DA605E
:1029FC007B681B68164A934209D07B681B68B3F14D
:102A0C00804F04D07B681B68124A934211D17B68BB
:102A1C001B689B6803F00703FB60FB68062B10D058
:102A2C007B681B681A687B681B6842F001021A609D
:102A3C0007E07B681B681A687B681B6842F0010220
:102A4C001A60002318461437BD4680BC704700BF7F
:102A5C00002C01400004004080B582B000AF7860CB
:102A6C007B681B681B6903F00203022B22D17B6875
:102A7C001B68DB6803F00203022B1BD17B681B680D
:102A8C006FF002021A617B6801221A777B681B685F
:102A9C009B6903F00303002B03D0786800F0B1F9B5
:102AAC0005E0786800F0A4F9786800F0B3F97B6869
:102ABC0000221A777B681B681B6903F00403042B44
:102ACC0022D17B681B68DB6803F00403042B1BD149
:102ADC007B681B686FF004021A617B6802221A770C
:102AEC007B681B689B6903F44073002B03D07868E8
:102AFC0000F087F905E0786800F07AF9786800F062
:102B0C0089F97B6800221A777B681B681B6903F0C4
:102B1C000803082B22D17B681B68DB6803F00803D1
:102B2C00082B1BD17B681B686FF008021A617B684D
:102B3C0004221A777B681B68DB6903F00303002B04
:102B4C0003D0786800F05DF905E0786800F050F982
:102B5C00786800F05FF97B6800221A777B681B6845
:102B6C001B6903F01003102B22D17B681B68DB68F8
:102B7C0003F01003102B1BD17B681B686FF0100245
:102B8C001A617B6808221A777B681B68DB6903F47F
:102B9C004073002B03D0786800F033F905E07868B7
:102BAC0000F026F9786800F035F97B6800221A7776
:102BBC007B681B681B6903F00103012B0ED17B683A
:102BCC001B68DB6803F00103012B07D17B681B68D2
:102BDC006FF001021A617868FEF72EFC7B681B68A7
:102BEC001B6903F08003802B0ED17B681B68DB68AC
:102BFC0003F08003802B07D17B681B686FF0800289
:102C0C001A61786800F067FA7B681B681B6903F02F
:102C1C004003402B0ED17B681B68DB6803F040033C
:102C2C00402B07D17B681B686FF040021A617868F3
:102C3C0000F0F9F87B681B681B6903F02003202B5C
:102C4C000ED17B681B68DB6803F02003202B07D1B7
:102C5C007B681B686FF020021A61786800F032FA0A
:102C6C0000BF0837BD4680BD80B584B000AF78602A
:102C7C0039607B6893F83C30012B01D10223B3E01F
:102C8C007B68012283F83C207B68022283F83D207C
:102C9C007B681B689B68FB60FB6823F07703FB6019
:102CAC00FB6823F47F43FB607B681B68FA689A60BF
:102CBC003B681B68B3F5005F3ED0B3F5005F00F2D4
:102CCC008780B3F5805F00F08580B3F5805F7FD897
:102CDC00702B1AD0702B7BD8602B50D0602B77D8F0
:102CEC00502B3CD0502B73D8402B58D0402B6FD846
:102CFC00302B64D0302B6BD8202B60D0202B67D896
:102D0C00002B5CD0102B5AD062E07B6818683B68B3
:102D1C0099683B685A683B68DB6800F05CF97B6833
:102D2C001B689B68FB60FB6843F07703FB607B6868
:102D3C001B68FA689A604EE07B6818683B68996873
:102D4C003B685A683B68DB6800F045F97B681B6898
:102D5C009A687B681B6842F480429A603BE07B680F
:102D6C0018683B6859683B68DB681A4600F0BCF889
:102D7C007B681B685021184600F013F92BE07B6828
:102D8C0018683B6859683B68DB681A4600F0DAF84B
:102D9C007B681B686021184600F003F91BE07B6818
:102DAC0018683B6859683B68DB681A4600F09CF869
:102DBC007B681B684021184600F0F3F80BE07B6839
:102DCC001A683B681B681946104600F0EAF802E0E6
:102DDC0000BF00E000BF7B68012283F83D207B68C8
:102DEC00002283F83C20002318461037BD4680BDD6
:102DFC0080B483B000AF786000BF0C37BD4680BC98
:102E0C00704780B483B000AF786000BF0C37BD460C
:102E1C0080BC704780B483B000AF786000BF0C37C3
:102E2C00BD4680BC704780B483B000AF786000BFF3
:102E3C000C37BD4680BC704780B485B000AF78605D
:102E4C0039607B681B68FB607B68254A934207D01E
:102E5C007B68B3F1804F03D07B68224A934208D140
:102E6C00FB6823F07003FB603B685B68FA681343F4
:102E7C00FB607B681A4A934207D07B68B3F1804FA2
:102E8C0003D07B68174A934208D1FB6823F4407344
:102E9C00FB603B68DB68FA681343FB60FB6823F05C
:102EAC0080023B685B691343FB607B68FA681A60BD
:102EBC003B689A687B68DA623B681A687B689A623E
:102ECC007B68074A934203D13B681A697B681A6393
:102EDC007B6801225A6100BF1437BD4680BC704725
:102EEC00002C01400004004080B487B000AFF860B3
:102EFC00B9607A60FB681B6A7B61FB681B6A23F014
:102F0C000102FB681A62FB689B693B613B6923F019
:102F1C00F0033B617B681B013A6913433B617B699E
:102F2C0023F00A037B617A69BB6813437B61FB68FE
:102F3C003A699A61FB687A691A6200BF1C37BD4610
:102F4C0080BC704780B487B000AFF860B9607A601D
:102F5C00FB681B6A23F01002FB681A62FB689B6912
:102F6C007B61FB681B6A3B617B6923F470437B616B
:102F7C007B681B037A6913437B613B6923F0A003D5
:102F8C003B61BB681B013A6913433B61FB687A697F
:102F9C009A61FB683A691A6200BF1C37BD4680BC57
:102FAC00704780B485B000AF786039607B689B68EF
:102FBC00FB60FB6823F07003FB603A68FB6813430B
:102FCC0043F00703FB607B68FA689A6000BF143714
:102FDC00BD4680BC704780B487B000AFF860B96064
:102FEC007A603B60FB689B687B617B6923F47F4361
:102FFC007B613B681A027B681A43BB6813437A698E
:10300C0013437B61FB687A699A6000BF1C37BD462D
:10301C0080BC704780B485B000AF786039607B6845
:10302C0093F83C30012B01D1022341E07B68012253
:10303C0083F83C207B68022283F83D207B681B6868
:10304C005B68FB607B681B689B68BB60FB6823F05C
:10305C007003FB603B681B68FA681343FB607B687A
:10306C001B68FA685A607B681B68144A934209D043
:10307C007B681B68B3F1804F04D07B681B68104AD7
:10308C0093420CD1BB6823F08003BB603B685B6848
:10309C00BA681343BB607B681B68BA689A607B682C
:1030AC00012283F83D207B68002283F83C2000231A
:1030BC0018461437BD4680BC704700BF002C014039
:1030CC000004004080B483B000AF786000BF0C37C0
:1030DC00BD4680BC704780B483B000AF786000BF41
:1030EC000C37BD4680BC704770B500260C4D0D4C9E
:1030FC00641BA410A64209D100F022F800260A4D48
:10310C000A4C641BA410A64205D170BD55F8043BB3
:10311C0098470136EEE755F8043B98470136F2E73D
:10312C00843100088431000884310008883100089B
:10313C0003460244934200D1704703F8011BF9E7A0
:10314C00F8B500BFF8BC08BC9E467047F8B500BF88
:08315C00F8BC08BC9E46704758
:1031640002030405060708090A0B0C0D0E0F1010C4
:103174000000000000000000010203040607080923
:04318400310100080D
:043188000D0100082D
:10318C00010000000100000001000000010000002F
:10319C00010000000100000001000000010000001F
:1031AC002C010000010000000100000001000000E3
:1031BC00010000002C0100000500000003000000CD
:1031CC000200000001000000010000000024F400D7
:1031DC0005000000030000001000000001000000CA
:0400000508001AAD28
:00000001FF
